{
  "_format": "hh-sol-artifact-1",
  "contractName": "Token",
  "sourceName": "contracts/Token.sol",
  "abi": [
    {
      "inputs": [],
      "stateMutability": "nonpayable",
      "type": "constructor"
    },
    {
      "anonymous": false,
      "inputs": [
        {
          "indexed": true,
          "internalType": "address",
          "name": "owner",
          "type": "address"
        },
        {
          "indexed": true,
          "internalType": "address",
          "name": "approved",
          "type": "address"
        },
        {
          "indexed": true,
          "internalType": "uint256",
          "name": "tokenId",
          "type": "uint256"
        }
      ],
      "name": "Approval",
      "type": "event"
    },
    {
      "anonymous": false,
      "inputs": [
        {
          "indexed": true,
          "internalType": "address",
          "name": "owner",
          "type": "address"
        },
        {
          "indexed": true,
          "internalType": "address",
          "name": "operator",
          "type": "address"
        },
        {
          "indexed": false,
          "internalType": "bool",
          "name": "approved",
          "type": "bool"
        }
      ],
      "name": "ApprovalForAll",
      "type": "event"
    },
    {
      "anonymous": false,
      "inputs": [
        {
          "indexed": false,
          "internalType": "uint256",
          "name": "_fromTokenId",
          "type": "uint256"
        },
        {
          "indexed": false,
          "internalType": "uint256",
          "name": "_toTokenId",
          "type": "uint256"
        }
      ],
      "name": "BatchMetadataUpdate",
      "type": "event"
    },
    {
      "anonymous": false,
      "inputs": [
        {
          "indexed": false,
          "internalType": "uint256",
          "name": "_tokenId",
          "type": "uint256"
        }
      ],
      "name": "MetadataUpdate",
      "type": "event"
    },
    {
      "anonymous": false,
      "inputs": [
        {
          "indexed": true,
          "internalType": "address",
          "name": "from",
          "type": "address"
        },
        {
          "indexed": true,
          "internalType": "address",
          "name": "to",
          "type": "address"
        },
        {
          "indexed": true,
          "internalType": "uint256",
          "name": "tokenId",
          "type": "uint256"
        }
      ],
      "name": "Transfer",
      "type": "event"
    },
    {
      "inputs": [
        {
          "internalType": "address",
          "name": "to",
          "type": "address"
        },
        {
          "internalType": "uint256",
          "name": "tokenId",
          "type": "uint256"
        }
      ],
      "name": "approve",
      "outputs": [],
      "stateMutability": "nonpayable",
      "type": "function"
    },
    {
      "inputs": [
        {
          "internalType": "address",
          "name": "owner",
          "type": "address"
        }
      ],
      "name": "balanceOf",
      "outputs": [
        {
          "internalType": "uint256",
          "name": "",
          "type": "uint256"
        }
      ],
      "stateMutability": "view",
      "type": "function"
    },
    {
      "inputs": [
        {
          "internalType": "uint256",
          "name": "tokenId",
          "type": "uint256"
        }
      ],
      "name": "buyToken",
      "outputs": [],
      "stateMutability": "payable",
      "type": "function"
    },
    {
      "inputs": [
        {
          "internalType": "uint256",
          "name": "tokenId",
          "type": "uint256"
        }
      ],
      "name": "cancelTokenSale",
      "outputs": [],
      "stateMutability": "nonpayable",
      "type": "function"
    },
    {
      "inputs": [
        {
          "internalType": "string",
          "name": "name",
          "type": "string"
        },
        {
          "internalType": "string",
          "name": "typeOfResource",
          "type": "string"
        },
        {
          "internalType": "uint256",
          "name": "value",
          "type": "uint256"
        },
        {
          "internalType": "string",
          "name": "hash",
          "type": "string"
        }
      ],
      "name": "createToken",
      "outputs": [],
      "stateMutability": "nonpayable",
      "type": "function"
    },
    {
      "inputs": [
        {
          "internalType": "uint256[]",
          "name": "tokenIdsFrom",
          "type": "uint256[]"
        },
        {
          "internalType": "uint256[]",
          "name": "tokenIdsTo",
          "type": "uint256[]"
        }
      ],
      "name": "exchangeMultipleTokens",
      "outputs": [],
      "stateMutability": "nonpayable",
      "type": "function"
    },
    {
      "inputs": [],
      "name": "getAllTokens",
      "outputs": [
        {
          "components": [
            {
              "internalType": "string",
              "name": "name",
              "type": "string"
            },
            {
              "internalType": "string",
              "name": "typeOfResource",
              "type": "string"
            },
            {
              "internalType": "uint256",
              "name": "value",
              "type": "uint256"
            },
            {
              "internalType": "string",
              "name": "hash",
              "type": "string"
            },
            {
              "internalType": "address[]",
              "name": "previousOwners",
              "type": "address[]"
            },
            {
              "internalType": "bool",
              "name": "isForSale",
              "type": "bool"
            },
            {
              "internalType": "uint256",
              "name": "createdAt",
              "type": "uint256"
            },
            {
              "internalType": "uint256",
              "name": "lastTransferAt",
              "type": "uint256"
            }
          ],
          "internalType": "struct Token.TokenMetadata[]",
          "name": "",
          "type": "tuple[]"
        },
        {
          "internalType": "address[]",
          "name": "",
          "type": "address[]"
        },
        {
          "internalType": "address[][]",
          "name": "",
          "type": "address[][]"
        }
      ],
      "stateMutability": "view",
      "type": "function"
    },
    {
      "inputs": [
        {
          "internalType": "uint256",
          "name": "tokenId",
          "type": "uint256"
        }
      ],
      "name": "getApproved",
      "outputs": [
        {
          "internalType": "address",
          "name": "",
          "type": "address"
        }
      ],
      "stateMutability": "view",
      "type": "function"
    },
    {
      "inputs": [
        {
          "internalType": "uint256",
          "name": "tokenId",
          "type": "uint256"
        }
      ],
      "name": "getTokenMetadata",
      "outputs": [
        {
          "components": [
            {
              "internalType": "string",
              "name": "name",
              "type": "string"
            },
            {
              "internalType": "string",
              "name": "typeOfResource",
              "type": "string"
            },
            {
              "internalType": "uint256",
              "name": "value",
              "type": "uint256"
            },
            {
              "internalType": "string",
              "name": "hash",
              "type": "string"
            },
            {
              "internalType": "address[]",
              "name": "previousOwners",
              "type": "address[]"
            },
            {
              "internalType": "bool",
              "name": "isForSale",
              "type": "bool"
            },
            {
              "internalType": "uint256",
              "name": "createdAt",
              "type": "uint256"
            },
            {
              "internalType": "uint256",
              "name": "lastTransferAt",
              "type": "uint256"
            }
          ],
          "internalType": "struct Token.TokenMetadata",
          "name": "",
          "type": "tuple"
        }
      ],
      "stateMutability": "view",
      "type": "function"
    },
    {
      "inputs": [
        {
          "internalType": "address",
          "name": "owner",
          "type": "address"
        },
        {
          "internalType": "address",
          "name": "operator",
          "type": "address"
        }
      ],
      "name": "isApprovedForAll",
      "outputs": [
        {
          "internalType": "bool",
          "name": "",
          "type": "bool"
        }
      ],
      "stateMutability": "view",
      "type": "function"
    },
    {
      "inputs": [
        {
          "internalType": "address",
          "name": "",
          "type": "address"
        }
      ],
      "name": "lastTransactionAt",
      "outputs": [
        {
          "internalType": "uint256",
          "name": "",
          "type": "uint256"
        }
      ],
      "stateMutability": "view",
      "type": "function"
    },
    {
      "inputs": [
        {
          "internalType": "address",
          "name": "",
          "type": "address"
        }
      ],
      "name": "lockUntil",
      "outputs": [
        {
          "internalType": "uint256",
          "name": "",
          "type": "uint256"
        }
      ],
      "stateMutability": "view",
      "type": "function"
    },
    {
      "inputs": [],
      "name": "maxResourcesPerUser",
      "outputs": [
        {
          "internalType": "uint256",
          "name": "",
          "type": "uint256"
        }
      ],
      "stateMutability": "view",
      "type": "function"
    },
    {
      "inputs": [],
      "name": "name",
      "outputs": [
        {
          "internalType": "string",
          "name": "",
          "type": "string"
        }
      ],
      "stateMutability": "view",
      "type": "function"
    },
    {
      "inputs": [],
      "name": "owner",
      "outputs": [
        {
          "internalType": "address",
          "name": "",
          "type": "address"
        }
      ],
      "stateMutability": "view",
      "type": "function"
    },
    {
      "inputs": [
        {
          "internalType": "uint256",
          "name": "tokenId",
          "type": "uint256"
        }
      ],
      "name": "ownerOf",
      "outputs": [
        {
          "internalType": "address",
          "name": "",
          "type": "address"
        }
      ],
      "stateMutability": "view",
      "type": "function"
    },
    {
      "inputs": [
        {
          "internalType": "uint256",
          "name": "tokenId",
          "type": "uint256"
        }
      ],
      "name": "putTokenForSale",
      "outputs": [],
      "stateMutability": "nonpayable",
      "type": "function"
    },
    {
      "inputs": [
        {
          "internalType": "address",
          "name": "from",
          "type": "address"
        },
        {
          "internalType": "address",
          "name": "to",
          "type": "address"
        },
        {
          "internalType": "uint256",
          "name": "tokenId",
          "type": "uint256"
        }
      ],
      "name": "safeTransferFrom",
      "outputs": [],
      "stateMutability": "nonpayable",
      "type": "function"
    },
    {
      "inputs": [
        {
          "internalType": "address",
          "name": "from",
          "type": "address"
        },
        {
          "internalType": "address",
          "name": "to",
          "type": "address"
        },
        {
          "internalType": "uint256",
          "name": "tokenId",
          "type": "uint256"
        },
        {
          "internalType": "bytes",
          "name": "data",
          "type": "bytes"
        }
      ],
      "name": "safeTransferFrom",
      "outputs": [],
      "stateMutability": "nonpayable",
      "type": "function"
    },
    {
      "inputs": [
        {
          "internalType": "address",
          "name": "operator",
          "type": "address"
        },
        {
          "internalType": "bool",
          "name": "approved",
          "type": "bool"
        }
      ],
      "name": "setApprovalForAll",
      "outputs": [],
      "stateMutability": "nonpayable",
      "type": "function"
    },
    {
      "inputs": [
        {
          "internalType": "bytes4",
          "name": "interfaceId",
          "type": "bytes4"
        }
      ],
      "name": "supportsInterface",
      "outputs": [
        {
          "internalType": "bool",
          "name": "",
          "type": "bool"
        }
      ],
      "stateMutability": "view",
      "type": "function"
    },
    {
      "inputs": [],
      "name": "symbol",
      "outputs": [
        {
          "internalType": "string",
          "name": "",
          "type": "string"
        }
      ],
      "stateMutability": "view",
      "type": "function"
    },
    {
      "inputs": [
        {
          "internalType": "uint256",
          "name": "",
          "type": "uint256"
        }
      ],
      "name": "tokenForSale",
      "outputs": [
        {
          "internalType": "uint256",
          "name": "",
          "type": "uint256"
        }
      ],
      "stateMutability": "view",
      "type": "function"
    },
    {
      "inputs": [
        {
          "internalType": "uint256",
          "name": "",
          "type": "uint256"
        }
      ],
      "name": "tokenMetadata",
      "outputs": [
        {
          "internalType": "string",
          "name": "name",
          "type": "string"
        },
        {
          "internalType": "string",
          "name": "typeOfResource",
          "type": "string"
        },
        {
          "internalType": "uint256",
          "name": "value",
          "type": "uint256"
        },
        {
          "internalType": "string",
          "name": "hash",
          "type": "string"
        },
        {
          "internalType": "bool",
          "name": "isForSale",
          "type": "bool"
        },
        {
          "internalType": "uint256",
          "name": "createdAt",
          "type": "uint256"
        },
        {
          "internalType": "uint256",
          "name": "lastTransferAt",
          "type": "uint256"
        }
      ],
      "stateMutability": "view",
      "type": "function"
    },
    {
      "inputs": [
        {
          "internalType": "uint256",
          "name": "tokenId",
          "type": "uint256"
        }
      ],
      "name": "tokenURI",
      "outputs": [
        {
          "internalType": "string",
          "name": "",
          "type": "string"
        }
      ],
      "stateMutability": "view",
      "type": "function"
    },
    {
      "inputs": [
        {
          "internalType": "address",
          "name": "from",
          "type": "address"
        },
        {
          "internalType": "address",
          "name": "to",
          "type": "address"
        },
        {
          "internalType": "uint256",
          "name": "tokenId",
          "type": "uint256"
        }
      ],
      "name": "transferFrom",
      "outputs": [],
      "stateMutability": "nonpayable",
      "type": "function"
    },
    {
      "inputs": [
        {
          "internalType": "address",
          "name": "",
          "type": "address"
        }
      ],
      "name": "userResourcesCount",
      "outputs": [
        {
          "internalType": "uint256",
          "name": "",
          "type": "uint256"
        }
      ],
      "stateMutability": "view",
      "type": "function"
    }
  ],
  "bytecode": "0x6080604052600460095534801561001557600080fd5b506040518060400160405280600d81526020017f5265736f75726365546f6b656e000000000000000000000000000000000000008152506040518060400160405280600381526020017f52544b00000000000000000000000000000000000000000000000000000000008152508160009081610091919061033a565b5080600190816100a1919061033a565b50505033600860006101000a81548173ffffffffffffffffffffffffffffffffffffffff021916908373ffffffffffffffffffffffffffffffffffffffff16021790555061040c565b600081519050919050565b7f4e487b7100000000000000000000000000000000000000000000000000000000600052604160045260246000fd5b7f4e487b7100000000000000000000000000000000000000000000000000000000600052602260045260246000fd5b6000600282049050600182168061016b57607f821691505b60208210810361017e5761017d610124565b5b50919050565b60008190508160005260206000209050919050565b60006020601f8301049050919050565b600082821b905092915050565b6000600883026101e67fffffffffffffffffffffffffffffffffffffffffffffffffffffffffffffffff826101a9565b6101f086836101a9565b95508019841693508086168417925050509392505050565b6000819050919050565b6000819050919050565b600061023761023261022d84610208565b610212565b610208565b9050919050565b6000819050919050565b6102518361021c565b61026561025d8261023e565b8484546101b6565b825550505050565b600090565b61027a61026d565b610285818484610248565b505050565b5b818110156102a95761029e600082610272565b60018101905061028b565b5050565b601f8211156102ee576102bf81610184565b6102c884610199565b810160208510156102d7578190505b6102eb6102e385610199565b83018261028a565b50505b505050565b600082821c905092915050565b6000610311600019846008026102f3565b1980831691505092915050565b600061032a8383610300565b9150826002028217905092915050565b610343826100ea565b67ffffffffffffffff81111561035c5761035b6100f5565b5b6103668254610153565b6103718282856102ad565b600060209050601f8311600181146103a45760008415610392578287015190505b61039c858261031e565b865550610404565b601f1984166103b286610184565b60005b828110156103da578489015182556001820191506020850194506020810190506103b5565b868310156103f757848901516103f3601f891682610300565b8355505b6001600288020188555050505b505050505050565b6154938061041b6000396000f3fe60806040526004361061019c5760003560e01c806360316801116100ec578063a22cb4651161008a578063b88d4fde11610064578063b88d4fde14610609578063c87b56dd14610632578063e985e9c51461066f578063eba74ee9146106ac5761019c565b8063a22cb46514610578578063a72765c8146105a1578063aa6dc95d146105cc5761019c565b806370a08231116100c657806370a08231146104bc5780637147065c146104f95780638da5cb5b1461052257806395d89b411461054d5761019c565b806360316801146103ff5780636352211e1461043c5780636914db60146104795761019c565b80632a5c792a11610159578063322caed111610133578063322caed114610347578063414db89e1461037057806342842e0e146103ad5780634c2e04e8146103d65761019c565b80632a5c792a146102d55780632bda5ac3146103025780632d296bf11461032b5761019c565b806301ffc9a7146101a157806306fdde03146101de578063081812fc14610209578063095ea7b31461024657806318ec53b21461026f57806323b872dd146102ac575b600080fd5b3480156101ad57600080fd5b506101c860048036038101906101c39190613556565b6106e9565b6040516101d5919061359e565b60405180910390f35b3480156101ea57600080fd5b506101f361074a565b6040516102009190613649565b60405180910390f35b34801561021557600080fd5b50610230600480360381019061022b91906136a1565b6107dc565b60405161023d919061370f565b60405180910390f35b34801561025257600080fd5b5061026d60048036038101906102689190613756565b610822565b005b34801561027b57600080fd5b5061029660048036038101906102919190613796565b610939565b6040516102a391906137d2565b60405180910390f35b3480156102b857600080fd5b506102d360048036038101906102ce91906137ed565b610951565b005b3480156102e157600080fd5b506102ea6109b1565b6040516102f993929190613c1e565b60405180910390f35b34801561030e57600080fd5b50610329600480360381019061032491906136a1565b610ebe565b005b610345600480360381019061034091906136a1565b610f7f565b005b34801561035357600080fd5b5061036e60048036038101906103699190613d9f565b61122e565b005b34801561037c57600080fd5b50610397600480360381019061039291906136a1565b611592565b6040516103a491906137d2565b60405180910390f35b3480156103b957600080fd5b506103d460048036038101906103cf91906137ed565b6115aa565b005b3480156103e257600080fd5b506103fd60048036038101906103f89190613f22565b6115ca565b005b34801561040b57600080fd5b50610426600480360381019061042191906136a1565b611b3a565b604051610433919061405f565b60405180910390f35b34801561044857600080fd5b50610463600480360381019061045e91906136a1565b611e2d565b604051610470919061370f565b60405180910390f35b34801561048557600080fd5b506104a0600480360381019061049b91906136a1565b611eb3565b6040516104b39796959493929190614081565b60405180910390f35b3480156104c857600080fd5b506104e360048036038101906104de9190613796565b61209a565b6040516104f091906137d2565b60405180910390f35b34801561050557600080fd5b50610520600480360381019061051b91906136a1565b612151565b005b34801561052e57600080fd5b5061053761222d565b604051610544919061370f565b60405180910390f35b34801561055957600080fd5b50610562612253565b60405161056f9190613649565b60405180910390f35b34801561058457600080fd5b5061059f600480360381019061059a9190614131565b6122e5565b005b3480156105ad57600080fd5b506105b66122fb565b6040516105c391906137d2565b60405180910390f35b3480156105d857600080fd5b506105f360048036038101906105ee9190613796565b612301565b60405161060091906137d2565b60405180910390f35b34801561061557600080fd5b50610630600480360381019061062b9190614212565b612319565b005b34801561063e57600080fd5b50610659600480360381019061065491906136a1565b61237b565b6040516106669190613649565b60405180910390f35b34801561067b57600080fd5b5061069660048036038101906106919190614295565b61248d565b6040516106a3919061359e565b60405180910390f35b3480156106b857600080fd5b506106d360048036038101906106ce9190613796565b612521565b6040516106e091906137d2565b60405180910390f35b6000634906490660e01b7bffffffffffffffffffffffffffffffffffffffffffffffffffffffff1916827bffffffffffffffffffffffffffffffffffffffffffffffffffffffff19161480610743575061074282612539565b5b9050919050565b60606000805461075990614304565b80601f016020809104026020016040519081016040528092919081815260200182805461078590614304565b80156107d25780601f106107a7576101008083540402835291602001916107d2565b820191906000526020600020905b8154815290600101906020018083116107b557829003601f168201915b5050505050905090565b60006107e78261261b565b6004600083815260200190815260200160002060009054906101000a900473ffffffffffffffffffffffffffffffffffffffff169050919050565b600061082d82611e2d565b90508073ffffffffffffffffffffffffffffffffffffffff168373ffffffffffffffffffffffffffffffffffffffff160361089d576040517f08c379a0000000000000000000000000000000000000000000000000000000008152600401610894906143a7565b60405180910390fd5b8073ffffffffffffffffffffffffffffffffffffffff166108bc612666565b73ffffffffffffffffffffffffffffffffffffffff1614806108eb57506108ea816108e5612666565b61248d565b5b61092a576040517f08c379a000000000000000000000000000000000000000000000000000000000815260040161092190614439565b60405180910390fd5b610934838361266e565b505050565b600d6020528060005260406000206000915090505481565b61096261095c612666565b82612727565b6109a1576040517f08c379a0000000000000000000000000000000000000000000000000000000008152600401610998906144cb565b60405180910390fd5b6109ac8383836127bc565b505050565b606080606060006109c26007612ab5565b905060008167ffffffffffffffff8111156109e0576109df613c74565b5b604051908082528060200260200182016040528015610a1957816020015b610a066133fc565b8152602001906001900390816109fe5790505b50905060008267ffffffffffffffff811115610a3857610a37613c74565b5b604051908082528060200260200182016040528015610a665781602001602082028036833780820191505090505b50905060008367ffffffffffffffff811115610a8557610a84613c74565b5b604051908082528060200260200182016040528015610ab857816020015b6060815260200190600190039081610aa35790505b50905060005b84811015610eab57610acf81612ac3565b15610e9e57600b600082815260200190815260200160002060405180610100016040529081600082018054610b0390614304565b80601f0160208091040260200160405190810160405280929190818152602001828054610b2f90614304565b8015610b7c5780601f10610b5157610100808354040283529160200191610b7c565b820191906000526020600020905b815481529060010190602001808311610b5f57829003601f168201915b50505050508152602001600182018054610b9590614304565b80601f0160208091040260200160405190810160405280929190818152602001828054610bc190614304565b8015610c0e5780601f10610be357610100808354040283529160200191610c0e565b820191906000526020600020905b815481529060010190602001808311610bf157829003601f168201915b5050505050815260200160028201548152602001600382018054610c3190614304565b80601f0160208091040260200160405190810160405280929190818152602001828054610c5d90614304565b8015610caa5780601f10610c7f57610100808354040283529160200191610caa565b820191906000526020600020905b815481529060010190602001808311610c8d57829003601f168201915b5050505050815260200160048201805480602002602001604051908101604052809291908181526020018280548015610d3857602002820191906000526020600020905b8160009054906101000a900473ffffffffffffffffffffffffffffffffffffffff1673ffffffffffffffffffffffffffffffffffffffff1681526020019060010190808311610cee575b505050505081526020016005820160009054906101000a900460ff1615151515815260200160068201548152602001600782015481525050848281518110610d8357610d826144eb565b5b6020026020010181905250610d9781611e2d565b838281518110610daa57610da96144eb565b5b602002602001019073ffffffffffffffffffffffffffffffffffffffff16908173ffffffffffffffffffffffffffffffffffffffff1681525050600b6000828152602001908152602001600020600401805480602002602001604051908101604052809291908181526020018280548015610e7a57602002820191906000526020600020905b8160009054906101000a900473ffffffffffffffffffffffffffffffffffffffff1673ffffffffffffffffffffffffffffffffffffffff1681526020019060010190808311610e30575b5050505050828281518110610e9257610e916144eb565b5b60200260200101819052505b8080600101915050610abe565b5082828296509650965050505050909192565b3373ffffffffffffffffffffffffffffffffffffffff16610ede82611e2d565b73ffffffffffffffffffffffffffffffffffffffff1614610f34576040517f08c379a0000000000000000000000000000000000000000000000000000000008152600401610f2b9061458c565b60405180910390fd5b6000600c6000838152602001908152602001600020819055506000600b600083815260200190815260200160002060050160006101000a81548160ff02191690831515021790555050565b6000600c600083815260200190815260200160002054905060008111610fda576040517f08c379a0000000000000000000000000000000000000000000000000000000008152600401610fd1906145f8565b60405180910390fd5b8034101561101d576040517f08c379a000000000000000000000000000000000000000000000000000000000815260040161101490614664565b60405180910390fd5b600e60003373ffffffffffffffffffffffffffffffffffffffff1673ffffffffffffffffffffffffffffffffffffffff1681526020019081526020016000205442101561109f576040517f08c379a0000000000000000000000000000000000000000000000000000000008152600401611096906146d0565b60405180910390fd5b60006110aa83611e2d565b905060003390508173ffffffffffffffffffffffffffffffffffffffff166108fc349081150290604051600060405180830381858888f193505050501580156110f7573d6000803e3d6000fd5b50600b6000858152602001908152602001600020600401829080600181540180825580915050600190039060005260206000200160009091909190916101000a81548173ffffffffffffffffffffffffffffffffffffffff021916908373ffffffffffffffffffffffffffffffffffffffff16021790555061117a8282866127bc565b6000600c600086815260200190815260200160002081905550610258426111a1919061471f565b600e60003373ffffffffffffffffffffffffffffffffffffffff1673ffffffffffffffffffffffffffffffffffffffff1681526020019081526020016000208190555042600d60003373ffffffffffffffffffffffffffffffffffffffff1673ffffffffffffffffffffffffffffffffffffffff1681526020019081526020016000208190555050505050565b600954600a60003373ffffffffffffffffffffffffffffffffffffffff1673ffffffffffffffffffffffffffffffffffffffff16815260200190815260200160002054106112b1576040517f08c379a00000000000000000000000000000000000000000000000000000000081526004016112a89061479f565b60405180910390fd5b61012c600d60003373ffffffffffffffffffffffffffffffffffffffff1673ffffffffffffffffffffffffffffffffffffffff168152602001908152602001600020546112fe919061471f565b421015611340576040517f08c379a000000000000000000000000000000000000000000000000000000000815260040161133790614831565b60405180910390fd5b600061134c6007612ab5565b90506113586007612b04565b6113623382612b1a565b6000600167ffffffffffffffff81111561137f5761137e613c74565b5b6040519080825280602002602001820160405280156113ad5781602001602082028036833780820191505090505b50905033816000815181106113c5576113c46144eb565b5b602002602001019073ffffffffffffffffffffffffffffffffffffffff16908173ffffffffffffffffffffffffffffffffffffffff168152505060405180610100016040528087815260200186815260200185815260200184815260200182815260200160001515815260200142815260200142815250600b6000848152602001908152602001600020600082015181600001908161146491906149fd565b50602082015181600101908161147a91906149fd565b5060408201518160020155606082015181600301908161149a91906149fd565b5060808201518160040190805190602001906114b7929190613443565b5060a08201518160050160006101000a81548160ff02191690831515021790555060c0820151816006015560e082015181600701559050506001600a60003373ffffffffffffffffffffffffffffffffffffffff1673ffffffffffffffffffffffffffffffffffffffff168152602001908152602001600020600082825461153f919061471f565b9250508190555042600d60003373ffffffffffffffffffffffffffffffffffffffff1673ffffffffffffffffffffffffffffffffffffffff16815260200190815260200160002081905550505050505050565b600c6020528060005260406000206000915090505481565b6115c583838360405180602001604052806000815250612319565b505050565b600082511180156115dc575060008151115b61161b576040517f08c379a000000000000000000000000000000000000000000000000000000000815260040161161290614b41565b60405180910390fd5b600080600061164485600081518110611637576116366144eb565b5b6020026020010151611e2d565b9050600061166c8560008151811061165f5761165e6144eb565b5b6020026020010151611e2d565b90508073ffffffffffffffffffffffffffffffffffffffff168273ffffffffffffffffffffffffffffffffffffffff16036116dc576040517f08c379a00000000000000000000000000000000000000000000000000000000081526004016116d390614bd3565b60405180910390fd5b3373ffffffffffffffffffffffffffffffffffffffff168273ffffffffffffffffffffffffffffffffffffffff16148061174157503373ffffffffffffffffffffffffffffffffffffffff168173ffffffffffffffffffffffffffffffffffffffff16145b611780576040517f08c379a000000000000000000000000000000000000000000000000000000000815260040161177790614c65565b60405180910390fd5b60005b86518110156118f8578273ffffffffffffffffffffffffffffffffffffffff166117c68883815181106117b9576117b86144eb565b5b6020026020010151611e2d565b73ffffffffffffffffffffffffffffffffffffffff161461181c576040517f08c379a000000000000000000000000000000000000000000000000000000000815260040161181390614d1d565b60405180910390fd5b600b6000888381518110611833576118326144eb565b5b602002602001015181526020019081526020016000206002015485611858919061471f565b9450600b6000888381518110611871576118706144eb565b5b60200260200101518152602001908152602001600020600401839080600181540180825580915050600190039060005260206000200160009091909190916101000a81548173ffffffffffffffffffffffffffffffffffffffff021916908373ffffffffffffffffffffffffffffffffffffffff1602179055508080600101915050611783565b5060005b8551811015611a71578173ffffffffffffffffffffffffffffffffffffffff1661193f878381518110611932576119316144eb565b5b6020026020010151611e2d565b73ffffffffffffffffffffffffffffffffffffffff1614611995576040517f08c379a000000000000000000000000000000000000000000000000000000000815260040161198c90614dd5565b60405180910390fd5b600b60008783815181106119ac576119ab6144eb565b5b6020026020010151815260200190815260200160002060020154846119d1919061471f565b9350600b60008783815181106119ea576119e96144eb565b5b60200260200101518152602001908152602001600020600401829080600181540180825580915050600190039060005260206000200160009091909190916101000a81548173ffffffffffffffffffffffffffffffffffffffff021916908373ffffffffffffffffffffffffffffffffffffffff16021790555080806001019150506118fc565b50828414611ab4576040517f08c379a0000000000000000000000000000000000000000000000000000000008152600401611aab90614e67565b60405180910390fd5b60005b8651811015611af257611ae58383898481518110611ad857611ad76144eb565b5b60200260200101516127bc565b8080600101915050611ab7565b5060005b8551811015611b3157611b248284888481518110611b1757611b166144eb565b5b60200260200101516127bc565b8080600101915050611af6565b50505050505050565b611b426133fc565b611b4b82612ac3565b611b8a576040517f08c379a0000000000000000000000000000000000000000000000000000000008152600401611b8190614ed3565b60405180910390fd5b600b600083815260200190815260200160002060405180610100016040529081600082018054611bb990614304565b80601f0160208091040260200160405190810160405280929190818152602001828054611be590614304565b8015611c325780601f10611c0757610100808354040283529160200191611c32565b820191906000526020600020905b815481529060010190602001808311611c1557829003601f168201915b50505050508152602001600182018054611c4b90614304565b80601f0160208091040260200160405190810160405280929190818152602001828054611c7790614304565b8015611cc45780601f10611c9957610100808354040283529160200191611cc4565b820191906000526020600020905b815481529060010190602001808311611ca757829003601f168201915b5050505050815260200160028201548152602001600382018054611ce790614304565b80601f0160208091040260200160405190810160405280929190818152602001828054611d1390614304565b8015611d605780601f10611d3557610100808354040283529160200191611d60565b820191906000526020600020905b815481529060010190602001808311611d4357829003601f168201915b5050505050815260200160048201805480602002602001604051908101604052809291908181526020018280548015611dee57602002820191906000526020600020905b8160009054906101000a900473ffffffffffffffffffffffffffffffffffffffff1673ffffffffffffffffffffffffffffffffffffffff1681526020019060010190808311611da4575b505050505081526020016005820160009054906101000a900460ff16151515158152602001600682015481526020016007820154815250509050919050565b600080611e3983612d37565b9050600073ffffffffffffffffffffffffffffffffffffffff168173ffffffffffffffffffffffffffffffffffffffff1603611eaa576040517f08c379a0000000000000000000000000000000000000000000000000000000008152600401611ea190614f3f565b60405180910390fd5b80915050919050565b600b602052806000526040600020600091509050806000018054611ed690614304565b80601f0160208091040260200160405190810160405280929190818152602001828054611f0290614304565b8015611f4f5780601f10611f2457610100808354040283529160200191611f4f565b820191906000526020600020905b815481529060010190602001808311611f3257829003601f168201915b505050505090806001018054611f6490614304565b80601f0160208091040260200160405190810160405280929190818152602001828054611f9090614304565b8015611fdd5780601f10611fb257610100808354040283529160200191611fdd565b820191906000526020600020905b815481529060010190602001808311611fc057829003601f168201915b505050505090806002015490806003018054611ff890614304565b80601f016020809104026020016040519081016040528092919081815260200182805461202490614304565b80156120715780601f1061204657610100808354040283529160200191612071565b820191906000526020600020905b81548152906001019060200180831161205457829003601f168201915b5050505050908060050160009054906101000a900460ff16908060060154908060070154905087565b60008073ffffffffffffffffffffffffffffffffffffffff168273ffffffffffffffffffffffffffffffffffffffff160361210a576040517f08c379a000000000000000000000000000000000000000000000000000000000815260040161210190614fd1565b60405180910390fd5b600360008373ffffffffffffffffffffffffffffffffffffffff1673ffffffffffffffffffffffffffffffffffffffff168152602001908152602001600020549050919050565b3373ffffffffffffffffffffffffffffffffffffffff1661217182611e2d565b73ffffffffffffffffffffffffffffffffffffffff16146121c7576040517f08c379a00000000000000000000000000000000000000000000000000000000081526004016121be9061458c565b60405180910390fd5b6000600b600083815260200190815260200160002060020154905080600c6000848152602001908152602001600020819055506001600b600084815260200190815260200160002060050160006101000a81548160ff0219169083151502179055505050565b600860009054906101000a900473ffffffffffffffffffffffffffffffffffffffff1681565b60606001805461226290614304565b80601f016020809104026020016040519081016040528092919081815260200182805461228e90614304565b80156122db5780601f106122b0576101008083540402835291602001916122db565b820191906000526020600020905b8154815290600101906020018083116122be57829003601f168201915b5050505050905090565b6122f76122f0612666565b8383612d74565b5050565b60095481565b600a6020528060005260406000206000915090505481565b61232a612324612666565b83612727565b612369576040517f08c379a0000000000000000000000000000000000000000000000000000000008152600401612360906144cb565b60405180910390fd5b61237584848484612ee0565b50505050565b60606123868261261b565b60006006600084815260200190815260200160002080546123a690614304565b80601f01602080910402602001604051908101604052809291908181526020018280546123d290614304565b801561241f5780601f106123f45761010080835404028352916020019161241f565b820191906000526020600020905b81548152906001019060200180831161240257829003601f168201915b505050505090506000612430612f3c565b90506000815103612445578192505050612488565b60008251111561247a57808260405160200161246292919061502d565b60405160208183030381529060405292505050612488565b61248384612f53565b925050505b919050565b6000600560008473ffffffffffffffffffffffffffffffffffffffff1673ffffffffffffffffffffffffffffffffffffffff16815260200190815260200160002060008373ffffffffffffffffffffffffffffffffffffffff1673ffffffffffffffffffffffffffffffffffffffff16815260200190815260200160002060009054906101000a900460ff16905092915050565b600e6020528060005260406000206000915090505481565b60007f80ac58cd000000000000000000000000000000000000000000000000000000007bffffffffffffffffffffffffffffffffffffffffffffffffffffffff1916827bffffffffffffffffffffffffffffffffffffffffffffffffffffffff1916148061260457507f5b5e139f000000000000000000000000000000000000000000000000000000007bffffffffffffffffffffffffffffffffffffffffffffffffffffffff1916827bffffffffffffffffffffffffffffffffffffffffffffffffffffffff1916145b80612614575061261382612fbb565b5b9050919050565b61262481612ac3565b612663576040517f08c379a000000000000000000000000000000000000000000000000000000000815260040161265a90614f3f565b60405180910390fd5b50565b600033905090565b816004600083815260200190815260200160002060006101000a81548173ffffffffffffffffffffffffffffffffffffffff021916908373ffffffffffffffffffffffffffffffffffffffff160217905550808273ffffffffffffffffffffffffffffffffffffffff166126e183611e2d565b73ffffffffffffffffffffffffffffffffffffffff167f8c5be1e5ebec7d5bd14f71427d1e84f3dd0314c0f7b2291e5b200ac8c7c3b92560405160405180910390a45050565b60008061273383611e2d565b90508073ffffffffffffffffffffffffffffffffffffffff168473ffffffffffffffffffffffffffffffffffffffff1614806127755750612774818561248d565b5b806127b357508373ffffffffffffffffffffffffffffffffffffffff1661279b846107dc565b73ffffffffffffffffffffffffffffffffffffffff16145b91505092915050565b8273ffffffffffffffffffffffffffffffffffffffff166127dc82611e2d565b73ffffffffffffffffffffffffffffffffffffffff1614612832576040517f08c379a0000000000000000000000000000000000000000000000000000000008152600401612829906150c3565b60405180910390fd5b600073ffffffffffffffffffffffffffffffffffffffff168273ffffffffffffffffffffffffffffffffffffffff16036128a1576040517f08c379a000000000000000000000000000000000000000000000000000000000815260040161289890615155565b60405180910390fd5b6128ae8383836001613025565b8273ffffffffffffffffffffffffffffffffffffffff166128ce82611e2d565b73ffffffffffffffffffffffffffffffffffffffff1614612924576040517f08c379a000000000000000000000000000000000000000000000000000000000815260040161291b906150c3565b60405180910390fd5b6004600082815260200190815260200160002060006101000a81549073ffffffffffffffffffffffffffffffffffffffff02191690556001600360008573ffffffffffffffffffffffffffffffffffffffff1673ffffffffffffffffffffffffffffffffffffffff168152602001908152602001600020600082825403925050819055506001600360008473ffffffffffffffffffffffffffffffffffffffff1673ffffffffffffffffffffffffffffffffffffffff16815260200190815260200160002060008282540192505081905550816002600083815260200190815260200160002060006101000a81548173ffffffffffffffffffffffffffffffffffffffff021916908373ffffffffffffffffffffffffffffffffffffffff160217905550808273ffffffffffffffffffffffffffffffffffffffff168473ffffffffffffffffffffffffffffffffffffffff167fddf252ad1be2c89b69c2b068fc378daa952ba7f163c4a11628f55a4df523b3ef60405160405180910390a4612ab0838383600161302b565b505050565b600081600001549050919050565b60008073ffffffffffffffffffffffffffffffffffffffff16612ae583612d37565b73ffffffffffffffffffffffffffffffffffffffff1614159050919050565b6001816000016000828254019250508190555050565b600073ffffffffffffffffffffffffffffffffffffffff168273ffffffffffffffffffffffffffffffffffffffff1603612b89576040517f08c379a0000000000000000000000000000000000000000000000000000000008152600401612b80906151c1565b60405180910390fd5b612b9281612ac3565b15612bd2576040517f08c379a0000000000000000000000000000000000000000000000000000000008152600401612bc99061522d565b60405180910390fd5b612be0600083836001613025565b612be981612ac3565b15612c29576040517f08c379a0000000000000000000000000000000000000000000000000000000008152600401612c209061522d565b60405180910390fd5b6001600360008473ffffffffffffffffffffffffffffffffffffffff1673ffffffffffffffffffffffffffffffffffffffff16815260200190815260200160002060008282540192505081905550816002600083815260200190815260200160002060006101000a81548173ffffffffffffffffffffffffffffffffffffffff021916908373ffffffffffffffffffffffffffffffffffffffff160217905550808273ffffffffffffffffffffffffffffffffffffffff16600073ffffffffffffffffffffffffffffffffffffffff167fddf252ad1be2c89b69c2b068fc378daa952ba7f163c4a11628f55a4df523b3ef60405160405180910390a4612d3360008383600161302b565b5050565b60006002600083815260200190815260200160002060009054906101000a900473ffffffffffffffffffffffffffffffffffffffff169050919050565b8173ffffffffffffffffffffffffffffffffffffffff168373ffffffffffffffffffffffffffffffffffffffff1603612de2576040517f08c379a0000000000000000000000000000000000000000000000000000000008152600401612dd990615299565b60405180910390fd5b80600560008573ffffffffffffffffffffffffffffffffffffffff1673ffffffffffffffffffffffffffffffffffffffff16815260200190815260200160002060008473ffffffffffffffffffffffffffffffffffffffff1673ffffffffffffffffffffffffffffffffffffffff16815260200190815260200160002060006101000a81548160ff0219169083151502179055508173ffffffffffffffffffffffffffffffffffffffff168373ffffffffffffffffffffffffffffffffffffffff167f17307eab39ab6107e8899845ad3d59bd9653f200f220920489ca2b5937696c3183604051612ed3919061359e565b60405180910390a3505050565b612eeb8484846127bc565b612ef784848484613031565b612f36576040517f08c379a0000000000000000000000000000000000000000000000000000000008152600401612f2d9061532b565b60405180910390fd5b50505050565b606060405180602001604052806000815250905090565b6060612f5e8261261b565b6000612f68612f3c565b90506000815111612f885760405180602001604052806000815250612fb3565b80612f92846131b8565b604051602001612fa392919061502d565b6040516020818303038152906040525b915050919050565b60007f01ffc9a7000000000000000000000000000000000000000000000000000000007bffffffffffffffffffffffffffffffffffffffffffffffffffffffff1916827bffffffffffffffffffffffffffffffffffffffffffffffffffffffff1916149050919050565b50505050565b50505050565b60006130528473ffffffffffffffffffffffffffffffffffffffff16613286565b156131ab578373ffffffffffffffffffffffffffffffffffffffff1663150b7a0261307b612666565b8786866040518563ffffffff1660e01b815260040161309d94939291906153a0565b6020604051808303816000875af19250505080156130d957506040513d601f19601f820116820180604052508101906130d69190615401565b60015b61315b573d8060008114613109576040519150601f19603f3d011682016040523d82523d6000602084013e61310e565b606091505b506000815103613153576040517f08c379a000000000000000000000000000000000000000000000000000000000815260040161314a9061532b565b60405180910390fd5b805181602001fd5b63150b7a0260e01b7bffffffffffffffffffffffffffffffffffffffffffffffffffffffff1916817bffffffffffffffffffffffffffffffffffffffffffffffffffffffff1916149150506131b0565b600190505b949350505050565b6060600060016131c7846132a9565b01905060008167ffffffffffffffff8111156131e6576131e5613c74565b5b6040519080825280601f01601f1916602001820160405280156132185781602001600182028036833780820191505090505b509050600082602001820190505b60011561327b578080600190039150507f3031323334353637383961626364656600000000000000000000000000000000600a86061a8153600a858161326f5761326e61542e565b5b04945060008503613226575b819350505050919050565b6000808273ffffffffffffffffffffffffffffffffffffffff163b119050919050565b600080600090507a184f03e93ff9f4daa797ed6e38ed64bf6a1f0100000000000000008310613307577a184f03e93ff9f4daa797ed6e38ed64bf6a1f01000000000000000083816132fd576132fc61542e565b5b0492506040810190505b6d04ee2d6d415b85acef81000000008310613344576d04ee2d6d415b85acef8100000000838161333a5761333961542e565b5b0492506020810190505b662386f26fc10000831061337357662386f26fc1000083816133695761336861542e565b5b0492506010810190505b6305f5e100831061339c576305f5e10083816133925761339161542e565b5b0492506008810190505b61271083106133c15761271083816133b7576133b661542e565b5b0492506004810190505b606483106133e457606483816133da576133d961542e565b5b0492506002810190505b600a83106133f3576001810190505b80915050919050565b604051806101000160405280606081526020016060815260200160008152602001606081526020016060815260200160001515815260200160008152602001600081525090565b8280548282559060005260206000209081019282156134bc579160200282015b828111156134bb5782518260006101000a81548173ffffffffffffffffffffffffffffffffffffffff021916908373ffffffffffffffffffffffffffffffffffffffff16021790555091602001919060010190613463565b5b5090506134c991906134cd565b5090565b5b808211156134e65760008160009055506001016134ce565b5090565b6000604051905090565b600080fd5b600080fd5b60007fffffffff0000000000000000000000000000000000000000000000000000000082169050919050565b613533816134fe565b811461353e57600080fd5b50565b6000813590506135508161352a565b92915050565b60006020828403121561356c5761356b6134f4565b5b600061357a84828501613541565b91505092915050565b60008115159050919050565b61359881613583565b82525050565b60006020820190506135b3600083018461358f565b92915050565b600081519050919050565b600082825260208201905092915050565b60005b838110156135f35780820151818401526020810190506135d8565b60008484015250505050565b6000601f19601f8301169050919050565b600061361b826135b9565b61362581856135c4565b93506136358185602086016135d5565b61363e816135ff565b840191505092915050565b600060208201905081810360008301526136638184613610565b905092915050565b6000819050919050565b61367e8161366b565b811461368957600080fd5b50565b60008135905061369b81613675565b92915050565b6000602082840312156136b7576136b66134f4565b5b60006136c58482850161368c565b91505092915050565b600073ffffffffffffffffffffffffffffffffffffffff82169050919050565b60006136f9826136ce565b9050919050565b613709816136ee565b82525050565b60006020820190506137246000830184613700565b92915050565b613733816136ee565b811461373e57600080fd5b50565b6000813590506137508161372a565b92915050565b6000806040838503121561376d5761376c6134f4565b5b600061377b85828601613741565b925050602061378c8582860161368c565b9150509250929050565b6000602082840312156137ac576137ab6134f4565b5b60006137ba84828501613741565b91505092915050565b6137cc8161366b565b82525050565b60006020820190506137e760008301846137c3565b92915050565b600080600060608486031215613806576138056134f4565b5b600061381486828701613741565b935050602061382586828701613741565b92505060406138368682870161368c565b9150509250925092565b600081519050919050565b600082825260208201905092915050565b6000819050602082019050919050565b600082825260208201905092915050565b6000613888826135b9565b613892818561386c565b93506138a28185602086016135d5565b6138ab816135ff565b840191505092915050565b6138bf8161366b565b82525050565b600081519050919050565b600082825260208201905092915050565b6000819050602082019050919050565b6138fa816136ee565b82525050565b600061390c83836138f1565b60208301905092915050565b6000602082019050919050565b6000613930826138c5565b61393a81856138d0565b9350613945836138e1565b8060005b8381101561397657815161395d8882613900565b975061396883613918565b925050600181019050613949565b5085935050505092915050565b61398c81613583565b82525050565b60006101008301600083015184820360008601526139b0828261387d565b915050602083015184820360208601526139ca828261387d565b91505060408301516139df60408601826138b6565b50606083015184820360608601526139f7828261387d565b91505060808301518482036080860152613a118282613925565b91505060a0830151613a2660a0860182613983565b5060c0830151613a3960c08601826138b6565b5060e0830151613a4c60e08601826138b6565b508091505092915050565b6000613a638383613992565b905092915050565b6000602082019050919050565b6000613a8382613840565b613a8d818561384b565b935083602082028501613a9f8561385c565b8060005b85811015613adb5784840389528151613abc8582613a57565b9450613ac783613a6b565b925060208a01995050600181019050613aa3565b50829750879550505050505092915050565b600082825260208201905092915050565b6000613b09826138c5565b613b138185613aed565b9350613b1e836138e1565b8060005b83811015613b4f578151613b368882613900565b9750613b4183613918565b925050600181019050613b22565b5085935050505092915050565b600081519050919050565b600082825260208201905092915050565b6000819050602082019050919050565b6000613b948383613925565b905092915050565b6000602082019050919050565b6000613bb482613b5c565b613bbe8185613b67565b935083602082028501613bd085613b78565b8060005b85811015613c0c5784840389528151613bed8582613b88565b9450613bf883613b9c565b925060208a01995050600181019050613bd4565b50829750879550505050505092915050565b60006060820190508181036000830152613c388186613a78565b90508181036020830152613c4c8185613afe565b90508181036040830152613c608184613ba9565b9050949350505050565b600080fd5b600080fd5b7f4e487b7100000000000000000000000000000000000000000000000000000000600052604160045260246000fd5b613cac826135ff565b810181811067ffffffffffffffff82111715613ccb57613cca613c74565b5b80604052505050565b6000613cde6134ea565b9050613cea8282613ca3565b919050565b600067ffffffffffffffff821115613d0a57613d09613c74565b5b613d13826135ff565b9050602081019050919050565b82818337600083830152505050565b6000613d42613d3d84613cef565b613cd4565b905082815260208101848484011115613d5e57613d5d613c6f565b5b613d69848285613d20565b509392505050565b600082601f830112613d8657613d85613c6a565b5b8135613d96848260208601613d2f565b91505092915050565b60008060008060808587031215613db957613db86134f4565b5b600085013567ffffffffffffffff811115613dd757613dd66134f9565b5b613de387828801613d71565b945050602085013567ffffffffffffffff811115613e0457613e036134f9565b5b613e1087828801613d71565b9350506040613e218782880161368c565b925050606085013567ffffffffffffffff811115613e4257613e416134f9565b5b613e4e87828801613d71565b91505092959194509250565b600067ffffffffffffffff821115613e7557613e74613c74565b5b602082029050602081019050919050565b600080fd5b6000613e9e613e9984613e5a565b613cd4565b90508083825260208201905060208402830185811115613ec157613ec0613e86565b5b835b81811015613eea5780613ed6888261368c565b845260208401935050602081019050613ec3565b5050509392505050565b600082601f830112613f0957613f08613c6a565b5b8135613f19848260208601613e8b565b91505092915050565b60008060408385031215613f3957613f386134f4565b5b600083013567ffffffffffffffff811115613f5757613f566134f9565b5b613f6385828601613ef4565b925050602083013567ffffffffffffffff811115613f8457613f836134f9565b5b613f9085828601613ef4565b9150509250929050565b6000610100830160008301518482036000860152613fb8828261387d565b91505060208301518482036020860152613fd2828261387d565b9150506040830151613fe760408601826138b6565b5060608301518482036060860152613fff828261387d565b915050608083015184820360808601526140198282613925565b91505060a083015161402e60a0860182613983565b5060c083015161404160c08601826138b6565b5060e083015161405460e08601826138b6565b508091505092915050565b600060208201905081810360008301526140798184613f9a565b905092915050565b600060e082019050818103600083015261409b818a613610565b905081810360208301526140af8189613610565b90506140be60408301886137c3565b81810360608301526140d08187613610565b90506140df608083018661358f565b6140ec60a08301856137c3565b6140f960c08301846137c3565b98975050505050505050565b61410e81613583565b811461411957600080fd5b50565b60008135905061412b81614105565b92915050565b60008060408385031215614148576141476134f4565b5b600061415685828601613741565b92505060206141678582860161411c565b9150509250929050565b600067ffffffffffffffff82111561418c5761418b613c74565b5b614195826135ff565b9050602081019050919050565b60006141b56141b084614171565b613cd4565b9050828152602081018484840111156141d1576141d0613c6f565b5b6141dc848285613d20565b509392505050565b600082601f8301126141f9576141f8613c6a565b5b81356142098482602086016141a2565b91505092915050565b6000806000806080858703121561422c5761422b6134f4565b5b600061423a87828801613741565b945050602061424b87828801613741565b935050604061425c8782880161368c565b925050606085013567ffffffffffffffff81111561427d5761427c6134f9565b5b614289878288016141e4565b91505092959194509250565b600080604083850312156142ac576142ab6134f4565b5b60006142ba85828601613741565b92505060206142cb85828601613741565b9150509250929050565b7f4e487b7100000000000000000000000000000000000000000000000000000000600052602260045260246000fd5b6000600282049050600182168061431c57607f821691505b60208210810361432f5761432e6142d5565b5b50919050565b7f4552433732313a20617070726f76616c20746f2063757272656e74206f776e6560008201527f7200000000000000000000000000000000000000000000000000000000000000602082015250565b60006143916021836135c4565b915061439c82614335565b604082019050919050565b600060208201905081810360008301526143c081614384565b9050919050565b7f4552433732313a20617070726f76652063616c6c6572206973206e6f7420746f60008201527f6b656e206f776e6572206f7220617070726f76656420666f7220616c6c000000602082015250565b6000614423603d836135c4565b915061442e826143c7565b604082019050919050565b6000602082019050818103600083015261445281614416565b9050919050565b7f4552433732313a2063616c6c6572206973206e6f7420746f6b656e206f776e6560008201527f72206f7220617070726f76656400000000000000000000000000000000000000602082015250565b60006144b5602d836135c4565b91506144c082614459565b604082019050919050565b600060208201905081810360008301526144e4816144a8565b9050919050565b7f4e487b7100000000000000000000000000000000000000000000000000000000600052603260045260246000fd5b7f566f7573206e276574657320706173206c652070726f7072696574616972652060008201527f6465206365207469636b65740000000000000000000000000000000000000000602082015250565b6000614576602c836135c4565b91506145818261451a565b604082019050919050565b600060208201905081810360008301526145a581614569565b9050919050565b7f4c65207469636b6574206e276573742070617320612076656e64726500000000600082015250565b60006145e2601c836135c4565b91506145ed826145ac565b602082019050919050565b60006020820190508181036000830152614611816145d5565b9050919050565b7f50617320617373657a20646520666f6e64730000000000000000000000000000600082015250565b600061464e6012836135c4565b915061465982614618565b602082019050919050565b6000602082019050818103600083015261467d81614641565b9050919050565b7f566f757320657465732074656d706f72616972656d656e7420626c6f71756573600082015250565b60006146ba6020836135c4565b91506146c582614684565b602082019050919050565b600060208201905081810360008301526146e9816146ad565b9050919050565b7f4e487b7100000000000000000000000000000000000000000000000000000000600052601160045260246000fd5b600061472a8261366b565b91506147358361366b565b925082820190508082111561474d5761474c6146f0565b5b92915050565b7f4d6178696d756d207265736f7572636573207265616368656400000000000000600082015250565b60006147896019836135c4565b915061479482614753565b602082019050919050565b600060208201905081810360008301526147b88161477c565b9050919050565b7f566f7573206e6520706f7576657a20637265657220717527756e207469636b6560008201527f7420746f75746573206c65732035206d696e7574657300000000000000000000602082015250565b600061481b6036836135c4565b9150614826826147bf565b604082019050919050565b6000602082019050818103600083015261484a8161480e565b9050919050565b60008190508160005260206000209050919050565b60006020601f8301049050919050565b600082821b905092915050565b6000600883026148b37fffffffffffffffffffffffffffffffffffffffffffffffffffffffffffffffff82614876565b6148bd8683614876565b95508019841693508086168417925050509392505050565b6000819050919050565b60006148fa6148f56148f08461366b565b6148d5565b61366b565b9050919050565b6000819050919050565b614914836148df565b61492861492082614901565b848454614883565b825550505050565b600090565b61493d614930565b61494881848461490b565b505050565b5b8181101561496c57614961600082614935565b60018101905061494e565b5050565b601f8211156149b15761498281614851565b61498b84614866565b8101602085101561499a578190505b6149ae6149a685614866565b83018261494d565b50505b505050565b600082821c905092915050565b60006149d4600019846008026149b6565b1980831691505092915050565b60006149ed83836149c3565b9150826002028217905092915050565b614a06826135b9565b67ffffffffffffffff811115614a1f57614a1e613c74565b5b614a298254614304565b614a34828285614970565b600060209050601f831160018114614a675760008415614a55578287015190505b614a5f85826149e1565b865550614ac7565b601f198416614a7586614851565b60005b82811015614a9d57848901518255600182019150602085019450602081019050614a78565b86831015614aba5784890151614ab6601f8916826149c3565b8355505b6001600288020188555050505b505050505050565b7f4c6573206c697374657320646520746f6b656e73206e652070657576656e742060008201527f70617320657472652076696465732e0000000000000000000000000000000000602082015250565b6000614b2b602f836135c4565b9150614b3682614acf565b604082019050919050565b60006020820190508181036000830152614b5a81614b1e565b9050919050565b7f566f7573206e6520706f7576657a2070617320656368616e67657220766f732060008201527f70726f7072657320746f6b656e7320656e747265206575782e00000000000000602082015250565b6000614bbd6039836135c4565b9150614bc882614b61565b604082019050919050565b60006020820190508181036000830152614bec81614bb0565b9050919050565b7f566f757320646576657a20706f737365646572206175206d6f696e7320756e2060008201527f64657320746f6b656e7320706f757220656368616e6765722e00000000000000602082015250565b6000614c4f6039836135c4565b9150614c5a82614bf3565b604082019050919050565b60006020820190508181036000830152614c7e81614c42565b9050919050565b7f546f7573206c657320746f6b656e73206465206c61207072656d69657265206c60008201527f6973746520646f6976656e7420617070617274656e6972206175206d656d652060208201527f70726f7072696574616972652e00000000000000000000000000000000000000604082015250565b6000614d07604d836135c4565b9150614d1282614c85565b606082019050919050565b60006020820190508181036000830152614d3681614cfa565b9050919050565b7f546f7573206c657320746f6b656e73206465206c61207365636f6e6465206c6960008201527f73746520646f6976656e7420617070617274656e6972206175206d656d65207060208201527f726f7072696574616972652e0000000000000000000000000000000000000000604082015250565b6000614dbf604c836135c4565b9150614dca82614d3d565b606082019050919050565b60006020820190508181036000830152614dee81614db2565b9050919050565b7f4c65732076616c6575727320746f74616c65732064657320746f6b656e73206560008201527f6368616e67657320646f6976656e742065747265206567616c65732e00000000602082015250565b6000614e51603c836135c4565b9150614e5c82614df5565b604082019050919050565b60006020820190508181036000830152614e8081614e44565b9050919050565b7f4c65207469636b6574206e276578697374652070617300000000000000000000600082015250565b6000614ebd6016836135c4565b9150614ec882614e87565b602082019050919050565b60006020820190508181036000830152614eec81614eb0565b9050919050565b7f4552433732313a20696e76616c696420746f6b656e2049440000000000000000600082015250565b6000614f296018836135c4565b9150614f3482614ef3565b602082019050919050565b60006020820190508181036000830152614f5881614f1c565b9050919050565b7f4552433732313a2061646472657373207a65726f206973206e6f74206120766160008201527f6c6964206f776e65720000000000000000000000000000000000000000000000602082015250565b6000614fbb6029836135c4565b9150614fc682614f5f565b604082019050919050565b60006020820190508181036000830152614fea81614fae565b9050919050565b600081905092915050565b6000615007826135b9565b6150118185614ff1565b93506150218185602086016135d5565b80840191505092915050565b60006150398285614ffc565b91506150458284614ffc565b91508190509392505050565b7f4552433732313a207472616e736665722066726f6d20696e636f72726563742060008201527f6f776e6572000000000000000000000000000000000000000000000000000000602082015250565b60006150ad6025836135c4565b91506150b882615051565b604082019050919050565b600060208201905081810360008301526150dc816150a0565b9050919050565b7f4552433732313a207472616e7366657220746f20746865207a65726f2061646460008201527f7265737300000000000000000000000000000000000000000000000000000000602082015250565b600061513f6024836135c4565b915061514a826150e3565b604082019050919050565b6000602082019050818103600083015261516e81615132565b9050919050565b7f4552433732313a206d696e7420746f20746865207a65726f2061646472657373600082015250565b60006151ab6020836135c4565b91506151b682615175565b602082019050919050565b600060208201905081810360008301526151da8161519e565b9050919050565b7f4552433732313a20746f6b656e20616c7265616479206d696e74656400000000600082015250565b6000615217601c836135c4565b9150615222826151e1565b602082019050919050565b600060208201905081810360008301526152468161520a565b9050919050565b7f4552433732313a20617070726f766520746f2063616c6c657200000000000000600082015250565b60006152836019836135c4565b915061528e8261524d565b602082019050919050565b600060208201905081810360008301526152b281615276565b9050919050565b7f4552433732313a207472616e7366657220746f206e6f6e20455243373231526560008201527f63656976657220696d706c656d656e7465720000000000000000000000000000602082015250565b60006153156032836135c4565b9150615320826152b9565b604082019050919050565b6000602082019050818103600083015261534481615308565b9050919050565b600081519050919050565b600082825260208201905092915050565b60006153728261534b565b61537c8185615356565b935061538c8185602086016135d5565b615395816135ff565b840191505092915050565b60006080820190506153b56000830187613700565b6153c26020830186613700565b6153cf60408301856137c3565b81810360608301526153e18184615367565b905095945050505050565b6000815190506153fb8161352a565b92915050565b600060208284031215615417576154166134f4565b5b6000615425848285016153ec565b91505092915050565b7f4e487b7100000000000000000000000000000000000000000000000000000000600052601260045260246000fdfea264697066735822122006448e1b6a0c2a00b6711ed1f02217e339857f8ad23114008528d78e384a424464736f6c634300081c0033",
  "linkReferences": {},
  "deployedLinkReferences": {}
}